:100000000C94E5000C940D010C940D010C940D0161
:100010000C940D010C940D010C94D2070C940D015D
:100020000C940D010C940D010C940D010C940D0118
:100030000C940D010C940D010C940D010C940D0108
:100040000C94DC010C940D010C94060E0C94380EEB
:100050000C940D010C940D010C940D010C940D01E8
:100060000C94C5110C940D01000000080002010061
:100070000003040700000000000000000102040863
:100080001020408001020408102001020408102002
:10009000040404040404040402020202020203032E
:1000A00003030303000000002300260029000000D2
:1000B0000000250028002B0000000000240027007D
:1000C0002A00005EBCE2613FDD83C29C7E20A3FD6E
:1000D0001F419DC3217FFCA2401E5F01E3BD3E6026
:1000E00082DC237D9FC1421CFEA0E1BF5D0380DE58
:1000F0003C62BEE0025CDF81633D7C22C09E1D430A
:10010000A1FF4618FAA427799BC584DA3866E5BBB7
:100110005907DB856739BAE406581947A5FB7826E5
:10012000C49A653BD987045AB8E6A7F91B45C69817
:100130007A24F8A6441A99C7257B3A6486D85B05C9
:10014000E7B98CD2306EEDB3510F4E10F2AC2F7177
:1001500093CD114FADF3702ECC92D38D6F31B2ECA5
:100160000E50AFF1134DCE90722C6D33D18F0C52D7
:10017000B0EE326C8ED0530DEFB1F0AE4C1291CF89
:100180002D73CA947628ABF517490856B4EA693737
:10019000D58B5709EBB536688AD495CB2977F4AA65
:1001A0004816E9B7550B88D6346A2B7597C94A1497
:1001B000F6A8742AC896154BA9F7B6E80A54D78949
:1001C0006B35C1016B07680ECD1011241FBECFEF38
:1001D000D8E0DEBFCDBF12E0A0E0B1E0EAEEFBE286
:1001E00002C005900D92AC3BB107D9F725E0ACEB0E
:1001F000B2E001C01D92A73CB207E1F710E0C5EEE6
:10020000D0E004C02197FE010E944214C13ED107F4
:10021000C9F70E94CD010C94F3150C94000061E025
:100220008DE00E94610360E08DE00E949D0360917B
:10023000D10281E093E00C943907CF931092BF0272
:100240001092BE02C5E06091BE027091BF0267309D
:1002500071050CF053C083E0660F771F8A95E1F7B4
:1002600060507F4F86ED92E00E94C8046091BE020C
:100270007091BF0293E0660F771F9A95E1F7605087
:100280007F4F86ED92E00E9453056093D2027093F7
:10029000D3028093D4029093D5026093CD027093E1
:1002A000CE028093CF029093D0028091D0028093AF
:1002B000C1028091CF028093C2028091CE028093CE
:1002C000C3028091CD028093C4028091BE028F5FF1
:1002D0008093C502C093C00245E050E061EC72E03B
:1002E00081E093E00E94AC068091BE029091BF0233
:1002F00001969093BF028093BE02A5CF6091D10278
:1003000081E093E00E944E0660E081E00E949D0340
:1003100060E082E00E949D0360E083E00E949D0314
:1003200060E084E00E949D0360E070E08FE00E9446
:10033000D90260E070E083E10E94D9021092BF020E
:100340001092BE028091BE029091BF0280339A4209
:100350008CF420E040E069E084E694E00E948807A5
:100360008091BE029091BF0201969093BF0280934C
:10037000BE02E8CF6091D10281E093E0CF910C946E
:10038000390762E08AEE92E00E9401096AEE72E0AB
:1003900086ED92E00C94D80308950E949E020E947C
:1003A000CC010E940F01C4EEDCE00E941D012097E9
:1003B000E1F30E94E40CF9CF1F920F920FB60F9257
:1003C00011242F933F938F939F93AF93BF9380916B
:1003D000F9029091FA02A091FB02B091FC023091D7
:1003E000F80223E0230F2D3720F40196A11DB11D43
:1003F00005C026E8230F0296A11DB11D2093F80227
:100400008093F9029093FA02A093FB02B093FC024E
:100410008091FD029091FE02A091FF02B091000335
:100420000196A11DB11D8093FD029093FE02A09341
:10043000FF02B0930003BF91AF919F918F913F91C5
:100440002F910F900FBE0F901F9018952FB7F89413
:100450006091F9027091FA028091FB029091FC0286
:100460002FBF08953FB7F8948091FD029091FE024E
:10047000A091FF02B091000326B5A89B05C02F3FB5
:1004800019F00196A11DB11D3FBFBA2FA92F982FBA
:100490008827820F911DA11DB11DBC01CD0142E035
:1004A000660F771F881F991F4A95D1F708958F927D
:1004B0009F92AF92BF92CF92DF92EF92FF926B0129
:1004C0007C010E9432024B015C01C114D104E104A1
:1004D000F10401F10E9431090E943202DC01CB01DA
:1004E00088199909AA09BB09883E9340A105B1055D
:1004F00060F321E0C21AD108E108F10888EE880E05
:1005000083E0981EA11CB11CC114D104E104F104C4
:1005100019F7DBCFFF90EF90DF90CF90BF90AF90B7
:100520009F908F9008958230910538F0880F991F21
:10053000880F991F05970197F1F70895789484B56E
:10054000826084BD84B5816084BD85B5826085BDCF
:1005500085B5816085BDEEE6F0E0808181608083B5
:10056000E1E8F0E010828081826080838081816098
:100570008083E0E8F0E0808181608083E1EBF0E05F
:10058000808184608083E0EBF0E080818160808303
:10059000EAE7F0E0808184608083808182608083EC
:1005A0008081816080838081806880831092C10017
:1005B00008951F93CF93DF93182FEB0161E00E9402
:1005C0006103209711F460E004C0CF3FD10539F4F6
:1005D00061E0812FDF91CF911F910C949D03E12F5A
:1005E000F0E0E859FF4FE491E330F9F048F4E130EE
:1005F000B9F0E230A1F584B5806284BDC8BD34C0D5
:10060000E730E9F0E83019F1E43049F580918000F5
:10061000806280938000D0938B00C0938A0024C0B6
:1006200084B5806884BDC7BD1FC08091800080688C
:1006300080938000D0938900C093880015C080917A
:10064000B00080688093B000C093B3000DC080916B
:10065000B00080628093B000C093B40005C0C03881
:10066000D1050CF0B5CFAFCFDF91CF911F91089599
:10067000833081F028F4813099F08230A1F0089520
:100680008730A9F08830B9F08430D1F480918000AF
:100690008F7D03C0809180008F77809380000895C4
:1006A00084B58F7702C084B58F7D84BD0895809115
:1006B000B0008F7703C08091B0008F7D8093B00031
:1006C0000895CF93DF9390E0FC01E458FF4F24910D
:1006D000FC01E057FF4F8491882361F190E0880F7F
:1006E000991FFC01E854FF4FC591D491FC01E255DC
:1006F000FF4FA591B491611109C09FB7F89488810B
:10070000209582238883EC912E230BC0623061F404
:100710009FB7F8948881322F309583238883EC919A
:100720002E2B2C939FBF06C08FB7F894E8812E2BF9
:1007300028838FBFDF91CF9108951F93CF93DF93CD
:10074000282F30E0F901E859FF4F8491F901E4586E
:10075000FF4FD491F901E057FF4FC491CC23C1F072
:10076000162F81110E943803EC2FF0E0EE0FFF1FCF
:10077000E255FF4FA591B4919FB7F894111104C0B1
:100780008C91D095D82302C0EC91DE2BDC939FBFD7
:10079000DF91CF911F910895FC01778366831482C6
:1007A0001582108289E0818381E0828383830895AA
:1007B000CF93DF93EC010E94CC031B8A1A8ADF914E
:1007C000CF910895EF92FF920F931F93CF93DF93F2
:1007D0008C01EB017A01FC01868197810E94E90777
:1007E000882311F1BE01F801868197810E94D60805
:1007F00040E06EEBF801868197810E948608E70150
:10080000F9E0EF0EF11CF801868197810E94BA0889
:100810008993CE15DF05B9F7F801868197810E948B
:10082000E90791E0813009F090E0892FDF91CF91C5
:100830001F910F91FF90EF900895CF93DF93EA01FE
:100840000E94E203882339F068E0CE010E94240967
:1008500091E02885281390E0892FDF91CF910895AA
:10086000CF93DF93CDB7DEB729970FB6F894DEBFED
:100870000FBECDBFFB0120812031D1F0AE014F5F13
:100880005F4F0E941D04882389F08D818F3361F0B2
:1008900020F48F3159F489E00CC08F3519F08F376F
:1008A00039F004C08BE005C08AE003C080E001C0DD
:1008B0008CE029960FB6F894DEBF0FBECDBFDF9156
:1008C000CF910895FC01868197810E945B0891E099
:1008D000813009F090E0892F08958F929F92AF9216
:1008E000BF92CF92DF92EF92FF920F931F93CF931D
:1008F000DF93EC016950633048F4E62FF0E0EE0F2F
:10090000FF1FE85CFE4F0081118102C00EEE12E075
:100910008B818823F1F0888181111BC00E942602FF
:100920004B015C016801110FEE08FF08CE010E9427
:100930006204811120C00E942602DC01CB018C19C7
:100940009D09AE09BF0988159905AA05BB0570F375
:1009500012C0B801110F880B990BDF91CF911F9135
:100960000F91FF90EF90DF90CF90BF90AF909F904E
:100970008F900C945702DF91CF911F910F91FF90B0
:10098000EF90DF90CF90BF90AF909F908F900895A1
:10099000EF92FF920F931F93CF93DF93EC017B01B4
:1009A0000E943004082F8823B9F08E819F810E9415
:1009B000E907B7018E819F810E94D608488164E4CF
:1009C0008E819F810E9486081A81112339F0602F41
:1009D000CE010E946D0403C010E001C011E0812F20
:1009E000DF91CF911F910F91FF90EF900895FA0141
:1009F000218130E0C901982F8827990F990F990F0D
:100A0000208148E0249F90011124282B392BDB0101
:100A10008C918031C1F4678170E08681AB01481B05
:100A20005109CA019695982F8827979587950E9416
:100A3000ED1360517109207F53E0220F331F5A9547
:100A4000E1F7260F371FC9010895EF92FF920F9328
:100A50001F93CF93DF93CDB7DEB729970FB6F894E6
:100A6000DEBF0FBECDBF8C017B01AE014F5F5F4F7C
:100A70000E941D04882341F0AE014F5F5F4FB70114
:100A8000C8010E94F70402C080E894EE29960FB6D0
:100A9000F894DEBF0FBECDBFDF91CF911F910F91B4
:100AA000FF90EF9008950E942505813824EE92076B
:100AB0006CF0BC01990F880B990B0E94F41220E096
:100AC00030E040E05CE30E948013089560E070E055
:100AD0008EEF92EC08958F929F92AF92BF92CF9239
:100AE000DF92EF92FF920F931F93CF93DF93CDB7D7
:100AF000DEB78989AA88BB88EC88FD880F851889AC
:100B000000561F4F94E6F80111929A95E9F71A14CE
:100B10001B04ECF4813021F0833009F44BC0A0C0F9
:100B20006EE371E0C8010E946715F7010190002093
:100B3000E9F73197AF014E195F09B701C8010E946B
:100B400072156AE172E0C8010E9467155EC0A114C7
:100B5000B10409F041C08230B1F0833059F18130E5
:100B6000D9F56EE371E0C8010E946715F7010190A5
:100B70000020E9F73197AF014E195F09B701C801AD
:100B80000E94721542C06EE371E0C8010E946715B1
:100B9000F70101900020E9F73197AF014E195F0985
:100BA000B701C8010E94721566E471E0C8010E9495
:100BB000671525C062E471E0C8010E946715F7015E
:100BC00001900020E9F73197AF014E195F09B70195
:100BD000C8010E94721513C0813089F416C04F01FC
:100BE00082E0880E911CC080D180C114D10491F4A0
:100BF000FFEFEF1AFF0AF401EA14FB0484F366E442
:100C000072E0C8010E9467152BC0FE017696E12CA8
:100C1000F12CF2CFE114F10429F068E471E0C8018D
:100C20000E946715F60101900020E9F73197AF01A6
:100C30004C195D09F80101900020E9F7CA01801BF9
:100C4000910B8E0F9F1F8336910528F4B601C801C2
:100C50000E947215CDCF84E6F80111928A95E9F7CA
:100C6000DF91CF911F910F91FF90EF90DF90CF9088
:100C7000BF90AF909F908F9008956AE471E00E96B8
:100C80000E945515009741F04AE050E060E070E0A6
:100C90000E945714862F089580E00895CF93DF9324
:100CA000EC01611106C0188285E694E00E944C0CAC
:100CB00007C0613029F4188285E694E00E94870C11
:100CC000CE010E94840980E0DF91CF910895EF92D8
:100CD000FF920F931F93CF93DF93FB0101900020AE
:100CE000E9F73197E61BF70B799768F5EC017F93ED
:100CF0006F9380E891E09F938F931F9281E08F9391
:100D00008F93DF93CF930E946B05BE0160567F4F98
:100D100018E9E12E1AE3F12E00E010E02EE431E0B4
:100D200046E651E0CE010E947D0B91E02DB73EB723
:100D3000275F3F4F0FB6F8943EBF0FBE2DBF8130E7
:100D400019F490E001C091E0892FDF91CF911F91BC
:100D50000F91FF90EF9008950F931F93CF93DF9320
:100D6000CDB7DEB76E970FB6F894DEBF0FBECDBF1E
:100D70008C014D30510510F04CE050E0242FAE01B5
:100D80004F5F5F4F85E694E00E94960BBE016F5F58
:100D90007F4FC8010E9467066E960FB6F894DEBFBB
:100DA0000FBECDBFDF91CF911F910F910895EF92AC
:100DB000FF920F931F93CF93DF93EC0118EEE12E78
:100DC00013E0F12E00E010E02EE431E044E551E0C4
:100DD00068E472E0CE010E947D0B813011F081E069
:100DE00018C008EE13E020E030E04EE451E066E683
:100DF00071E0CE010E947E0A813041F4CE010E9452
:100E00003D06C35BDE4F888380E003C0823039F348
:100E100082E0DF91CF911F910F91FF90EF900895A5
:100E2000EF92FF920F931F93CF93DF93EC0118E89B
:100E3000E12E13E1F12E00E010E02EE431E046E671
:100E400051E061E572E0CE010E947D0B813029F412
:100E5000CE010E94D70680E005C0823011F082E00A
:100E600001C081E0DF91CF911F910F91FF90EF9032
:100E70000895CF93DF93EC0180E895E2A0E0B0E025
:100E800089839A83AB83BC8361110AC0188285E68B
:100E900094E00E94310C85E694E00E945A0C0DC04B
:100EA000613011F0688309C0188285E694E00E94E1
:100EB0006C0C85E694E00E94950CCE010E947509A9
:100EC00068E873E180E090E00E945702CE01DF9174
:100ED000CF910C941007E1E0F3E080E092ECA1E008
:100EE000B0E081839283A383B48388E893E1A0E098
:100EF000B0E085839683A783B08784E690E0A0E086
:100F0000B0E081879287A387B48781E085870895C1
:100F1000411105C0EAE7F0E080818F7780836A3075
:100F2000A9F063FD02C088E001C088E26770682B09
:100F300088E10FB6F894A895809360000FBE609387
:100F40006000E0E6F0E0808180648083211114C0BD
:100F500083B7817F846083BFF89483B7816083BF48
:100F600085B7806685BF8F7D85BF7894889583B768
:100F70008E7F83BF78940EC083B7817F846083BFE8
:100F8000F89483B7816083BF7894889583B78E7F08
:100F900083BF7894411105C0EAE7F0E08081806862
:100FA000808308951F920F920FB60F9211248F9392
:100FB0000FB6F894A89580916000886180936000D6
:100FC000109260000FBE8F910F900FBE0F901F9078
:100FD0001895FF920F931F93CF93DF93FC01F0803E
:100FE000C181D281F89489810F2D00958023898356
:100FF00078941DE7115029F182E090E00E9493025D
:1010000088818F21B9F3F8948A8180238A8389812A
:101010008F298983789480EE91E00E949302F8945E
:1010200089810823098386E490E00E9493028881E5
:10103000F82211E009F010E078948AE991E00E942A
:101040009302812FDF91CF911F910F91FF9008950F
:101050001F93CF93DF93FC011081C181D281812F37
:10106000809560FF12C0F8949A8189238A838981D0
:10107000812B89838AE090E00E9493028A81182B59
:101080001A83789487E390E011C0F8949A818923B9
:101090008A838981812B898381E490E00E94930275
:1010A0008A81182B1A83789485E090E0DF91CF91A4
:1010B0001F910C9493020F931F93CF93DF93FC0126
:1010C0000081C181D281F8948981802B89838A81B2
:1010D000102F109581238A8383E090E00E94930271
:1010E0008981182319838AE090E00E949302C881C5
:1010F000789485E390E00E949302C02381E009F494
:1011000080E0DF91CF911F910F910895DF92EF92D0
:10111000FF920F931F93CF93DF93EC01D62EE42E13
:1011200008E010E0FF24F39461E08D2D8F2109F495
:1011300060E0CE010E942808FF0C01501109A1F7C0
:10114000E11010C0F894E981FA819181888180953D
:1011500089238183E981FA8192818881809589231D
:1011600082837894DF91CF911F910F91FF90EF9040
:10117000DF900895EF92FF920F931F93CF93DF9329
:101180007C0108E010E0C0E0D1E0C7010E945B08EC
:101190008111CD2BDD0F01501109B9F78C2FDF9193
:1011A000CF911F910F91FF90EF900895EF92FF92D2
:1011B0000F931F93CF93DF938C017B0140E065E594
:1011C0000E948608E70188E0E80EF11C699140E082
:1011D000C8010E948608CE15DF05C1F7DF91CF91C7
:1011E0001F910F91FF90EF900895FC0113861586D3
:1011F0001486DC011B9633961E92AE17BF07E1F7EB
:1012000008951F93CF93DF93EC01162F60E0812F99
:101210000E946103612F70E0FB01E458FF4FE491ED
:10122000E883FB01E057FF4FE491F0E0EE0FFF1F72
:10123000EC55FF4F859194919A838983CE01DF917C
:10124000CF911F910C94F508DC0180E0615040F0D3
:101250009D91E82FE927F0E0EE53FF4F8491F6CF00
:1012600008950895AF92BF92CF92DF92EF92FF92CE
:101270000F931F93CF93DF93E90109900020E9F7C3
:101280002197C21BD30B4C175D07B8F079016B0196
:10129000A12CB12C8A010C1B1D0B0A151B0568F033
:1012A000AE01B701C6018A0D9B1D0E945A15892BFC
:1012B00031F08FEFA81AB80AF0CF80E001C081E0CA
:1012C000DF91CF911F910F91FF90EF90DF90CF9022
:1012D000BF90AF900895411107C026E0AB01BC015B
:1012E00087E694E00C947C0D0895FC016181728185
:1012F0008381948140810C946B09811104C087E63D
:1013000094E00C94E10D0895FC0180810C947D091A
:10131000611105C0682F87E694E00C94130D0895C1
:101320001F93CF93DF93162FEC018991882321F02F
:10133000612F0E948809F9CFDF91CF911F91089505
:10134000811104C087E694E00C94A70C8FEF9FEF07
:101350000895811104C087E694E00C94C10C8FEFCE
:101360009FEF08952F923F924F925F926F927F92DC
:101370008F929F92AF92BF92CF92DF92EF92FF92A5
:101380000F931F93CF93DF93CDB7DEB72A970FB696
:10139000F894DEBF0FBECDBF9A87898778876F83A9
:1013A0005C834B8319011E830D833C018EE0680E24
:1013B000711C80E9F30111928A95E9F709851A8574
:1013C00002561F4FF801118210820E9426024B0123
:1013D0005C01412C512C1A8309830E942602DC01F6
:1013E000CB0188199909AA09BB098C159D05AE0581
:1013F000BF0508F061C0E985FA8580810E94A009D7
:10140000892BC9F0FFE84F165104A8F482010F5F41
:101410001F4FE985FA8580810E94A909E985FA852F
:10142000E40DF51D8687E981FA818081918101961D
:10143000918380832801E981FA81008111812F81C4
:101440003885A801B30189859A850E9432098111E6
:1014500035C08B819C81009749F09C01A801B301A4
:1014600089859A850E94320981112AC0211431048C
:1014700049F09101A801B30189859A850E9432093A
:10148000811120C0ED81FE81309749F09F01A801B4
:10149000B30189859A850E943209811115C00E9485
:1014A0002602681579058A059B0508F096CF0E94EB
:1014B00026024B015C0191CF80E007C081E005C0AE
:1014C00082E003C083E001C084E02A960FB6F8945E
:1014D000DEBF0FBECDBFDF91CF911F910F91FF9067
:1014E000EF90DF90CF90BF90AF909F908F907F90C4
:1014F0006F905F904F903F902F900895CF92DF9222
:10150000EF92FF920F931F936801790100E010E0C2
:1015100020E030E00E94B2091F910F91FF90EF9000
:10152000DF90CF900895811104C087E694E00C9479
:101530005A0D08952F923F924F925F926F927F9231
:101540008F929F92AF92BF92CF92DF92EF92FF92D3
:101550000F931F93CF93DF93CDB7DEB72A970FB6C4
:10156000F894DEBF0FBECDBF9A8789874B0158879D
:101570004F8319011C830B83FE82ED82FC0185855C
:10158000882319F080810E94930AE985FA85608199
:10159000C4010E949009E985FA8561857285838579
:1015A00094850E94570289849A84FEE08F0E911CD4
:1015B00080E9F40111928A95E9F709851A850256A6
:1015C0001F4FF801118210820E9426022B013C015C
:1015D000E12CF12C1A8309830E942602DC01CB0145
:1015E00084199509A609B7098A159B05AC05BD059F
:1015F00008F061C0E985FA8580810E94A009892BE5
:10160000C9F0FFE8EF16F104A8F487010F5F1F4F40
:10161000E985FA8580810E94A909E985FA85EE0DA0
:10162000FF1D8687E981FA818081918101969183EE
:1016300080837801E981FA81008111812F813885C9
:10164000A801B40189859A850E943209811135C0AB
:101650002114310449F09101A801B40189859A85CA
:101660000E94320981112BC08B819C81009749F027
:101670009C01A801B40189859A850E9432098111D3
:1016800020C0ED81FE81309749F09F01A801B4018F
:1016900089859A850E943209811115C00E9426020F
:1016A000641575058605970508F096CF0E942602F9
:1016B0002B013C0191CF80E007C081E005C082E0B2
:1016C00003C083E001C084E02A960FB6F894DEBF21
:1016D0000FBECDBFDF91CF911F910F91FF90EF9083
:1016E000DF90CF90BF90AF909F908F907F906F9042
:1016F0005F904F903F902F900895AF92BF92CF92FE
:10170000DF92EF92FF920F931F9357016801E12C34
:10171000F12C00E010E00E949A0A1F910F91FF90B7
:10172000EF90DF90CF90BF90AF900895CF93DF936D
:10173000FB01A0E0B0E030E0CF01861B970B8217E1
:101740009307B4F48191982F92959F708F70EA015E
:10175000CA0FDB1F9A3010F4905D01C0995C98832A
:101760008A3010F4805D01C0895C89831296E4CFD1
:10177000220F331FFA01E20FF31F1082DF91CF9186
:10178000089584E095E00E940E0F6AE070E080E02A
:1017900090E00E94570241E060E084E095E00E9402
:1017A000570F41E061E084E095E00E94570F41E06F
:1017B00062E084E095E00E94570F41E063E084E03E
:1017C00095E00E94570F41E064E084E095E00E94BC
:1017D000570F41E065E084E095E00E94570F40E03C
:1017E00066E084E095E00E94570F41E067E084E006
:1017F00095E00E94570F64E670E080E090E00E9460
:10180000570240E060E084E095E00E947F0F40E0F6
:1018100061E084E095E00E947F0F40E062E084E0B8
:1018200095E00E947F0F41E063E084E095E00E9434
:101830007F0F41E064E084E095E00E947F0F40E08C
:1018400065E084E095E00E947F0F41E067E084E07E
:1018500095E00E947F0F64E670E080E090E00C94D9
:10186000570220916604213011F00E94C10B65E0FF
:1018700070E080E090E00E94570241E061E084E087
:1018800095E00E947F0F81E08093650464E670E03C
:1018900080E090E00C94570240E061E084E095E045
:1018A0000E947F0F1092650464E670E080E090E093
:1018B0000C94570240E064E084E095E00E947F0FC2
:1018C00040E065E084E095E00E947F0F64E670E010
:1018D00080E090E00C94570220916504213011F0D3
:1018E0000E94C10B65E070E080E090E00E9457022A
:1018F00041E060E084E095E00E947F0F81E080930A
:10190000660464E670E080E090E00C94570240E0EA
:1019100060E084E095E00E947F0F1092660464E628
:1019200070E080E090E00C94570240E064E084E0D6
:1019300095E00E947F0F41E065E084E095E00E9421
:101940007F0F64E670E080E090E00C945702FC01A9
:10195000918D228D892F90E0805C9F4F821B910991
:101960008F7399270895FC01918D828D981731F01E
:10197000828DE80FF11D858D90E008958FEF9FEF28
:101980000895FC01918D828D981761F0828DDF01A1
:10199000A80FB11D5D968C91928D9F5F9F73928F62
:1019A00090E008958FEF9FEF0895FC01538D448DD3
:1019B000252F30E0842F90E0821B930B541710F0FA
:1019C000CF960895019708958EE59EE0892B49F002
:1019D00080E090E0892B29F00E945E0E81110C942A
:1019E00000000895FC01848DDF01A80FB11DA35AEA
:1019F000BF4F2C91848D90E001968F739927848F2F
:101A0000A689B7892C93A089B1898C9180648C9325
:101A1000938D848D981306C00288F389E02D808110
:101A20008F7D80830895EF92FF920F931F93CF9342
:101A3000DF93EC0181E0888F9B8D8C8D981305C01E
:101A4000E889F989808185FD24C0F62E0B8D10E090
:101A50000F5F1F4F0F731127E02E8C8DE8120CC003
:101A60000FB607FCFACFE889F989808185FFF5CFA9
:101A7000CE010E94F20CF1CF8B8DFE01E80FF11D1B
:101A8000E35AFF4FF0820B8FEA89FB8980818062E5
:101A900007C0EE89FF896083E889F98980818064C5
:101AA000808381E090E0DF91CF911F910F91FF90B3
:101AB000EF900895CF93DF93EC01888D8823C9F0D0
:101AC000EA89FB89808185FD05C0A889B9898C9147
:101AD00086FD0FC00FB607FCF5CF808185FFF2CFE2
:101AE000A889B9898C9185FFEDCFCE010E94F20CB7
:101AF000E7CFDF91CF910895CF92DF92EF92FF92DF
:101B00001F93CF93DF93EC016A017B01122FE889C9
:101B1000F98982E080834115514E61057105B1F06C
:101B200060E079E08DE390E0A70196010E94011446
:101B3000DA01C9010197A109B109B695A795979551
:101B400087959C01211580E13807A8F0E889F9897B
:101B5000108260E874E88EE190E0A70196010E948F
:101B60000114DA01C9010197A109B109B695A79538
:101B7000979587959C01EC85FD853083EE85FF85E3
:101B80002083188EEC89FD891083EA89FB89808186
:101B900080618083EA89FB89808188608083EA890B
:101BA000FB89808180688083EA89FB8980818F7DC1
:101BB0008083DF91CF911F91FF90EF90DF90CF90C6
:101BC0000895CF93DF93EC01E881F9810680F781D6
:101BD000E02D0995EA89FB8980818F7E8083EA89DF
:101BE000FB898081877F8083EA89FB8980818F7769
:101BF0008083EA89FB8980818F7D80838A8D898FAC
:101C0000DF91CF91089580E090E008951F920F92A8
:101C10000FB60F9211242F938F939F93EF93FF93FF
:101C2000E0917704F09178048081E0917D04F09157
:101C30007E0482FD12C09081809180048F5F8F733B
:101C400020918104821751F0E0918004F0E0E9597D
:101C5000FB4F958F8093800401C08081FF91EF91AD
:101C60009F918F912F910F900FBE0F901F901895FD
:101C70001F920F920FB60F9211242F933F934F9301
:101C80005F936F937F938F939F93AF93BF93EF93E4
:101C9000FF9387E694E00E94F20CFF91EF91BF91D1
:101CA000AF919F918F917F916F915F914F913F91F4
:101CB0002F910F900FBE0F901F90189587E694E01C
:101CC0000E94A70C21E0892B09F420E0822F0895BF
:101CD000E7E6F4E01382128288EE93E0A0E0B0E041
:101CE00084839583A683B7838BE992E09183808375
:101CF00085EC90E09587848784EC90E097878687D1
:101D000080EC90E0918B808B81EC90E0938B828BC8
:101D100082EC90E0958B848B86EC90E0978B868BA1
:101D2000118E128E138E148E0895CF92DF92EF9241
:101D3000FF920F931F93CF93DF936C017A018B0176
:101D4000C0E0D0E0CE15DF0581F0D8016D918D01A6
:101D5000D601ED91FC910190F081E02DC60109952D
:101D6000892B11F02196EECF7E01C701DF91CF9133
:101D70001F910F91FF90EF90DF90CF900895CF9338
:101D8000DF93EC01683008F067E0688385E095E058
:101D90000E943A106881606270E085E095E00E94E0
:101DA0004E1060E085E095E00E94FB0F6FEF85E04C
:101DB00095E00E94FB0F60E085E095E00E94FB0F3C
:101DC00060E085E095E00E94FB0F60E085E095E033
:101DD0000E94FB0F60E085E095E00E94FB0F60E051
:101DE00085E095E00E94FB0F60E085E095E00E94B1
:101DF000FB0F60E085E095E00E94FB0F60E085E06E
:101E000095E00E94FB0F60E085E095E00E94FB0FEB
:101E100085E095E0DF91CF910C94CA1060E00C94BE
:101E2000BF0ECF93DF93D62FC42FFC016081606279
:101E300070E085E095E00E944E106D2F85E095E002
:101E40000E94FB0F6C2F85E095E00E94FB0F85E060
:101E500095E0DF91CF910C94CA10462F69E00C9465
:101E6000110F1F93CF93DF93EC01162F68816062EF
:101E700070E085E095E00E944E10612F85E095E0CE
:101E80000E94FB0F85E095E00E94CA1068816062A5
:101E900070E041E050E085E095E00E94C71085E0E9
:101EA00095E00E94AA0FDF91CF911F9108950F93A3
:101EB0001F93CF93DF936830D0F4D42FC62F8C01BB
:101EC00060E00E94310F41E050E001C0440FCA952C
:101ED000EAF7D11102C0482B02C04095482360E0C8
:101EE000C801DF91CF911F910F910C94110FDF91D9
:101EF000CF911F910F91089569E00C94310F0F93CA
:101F00001F93CF93DF936830C0F4D42FC62F8C017A
:101F10000E947C0F61E070E001C0660FCA95EAF78D
:101F2000D13011F4682B02C060956823C801DF919D
:101F3000CF911F910F910C942D0FDF91CF911F9195
:101F40000F9108958091350590E020913605821B10
:101F5000910908959091360580913505981750F4B0
:101F6000E92FF0E0E95CFA4F208130E09F5F909329
:101F7000360502C02FEF3FEFC9010895E091360505
:101F800080913505E81730F4F0E0E95CFA4F808184
:101F900090E008958FEF9FEF08950895CF92DF921C
:101FA000EF92FF920F931F93CF93DF937C01CB01AE
:101FB0008A0120911105222389F0EB016B01C40EE7
:101FC000D51ECC15DD0569F06991D701ED91FC9125
:101FD0000190F081E02DC7010995F3CF642F0E9495
:101FE0008D11C801DF91CF911F910F91FF90EF905C
:101FF000DF90CF900895CF93DF931F92CDB7DEB7D8
:102000006983209111052223D1F0209112052032FD
:1020100040F021E030E0FC013383228380E090E057
:1020200015C080911305E82FF0E0EC5EFA4F99811E
:1020300090838F5F809313058093120505C061E044
:10204000CE0101960E948D1181E090E00F90DF910A
:10205000CF910895FC011382128288EE93E0A0E0F4
:10206000B0E084839583A683B7838DEA92E0918361
:10207000808308951092360510923505109213054D
:10208000109212050C94D11081E080931105609399
:102090003405109213051092120508950C94441003
:1020A0000F93062F21E04091120564E175E08091C5
:1020B00034050E94371110921305109212051092E8
:1020C00011050F9108954F925F926F927F92AF9298
:1020D000BF92CF92EF92FF920F931F93CF93DF9314
:1020E0005C01F62ED42F28013901EE2021F10E9447
:1020F0004410CE2DC43008F0C3E0C150C0F028E039
:10210000C29FC0011124A301920104C056954795B6
:10211000379527958A95D2F7CA01B901D501ED9176
:10212000FC910190F081E02DC5010995E6CF60E0BA
:10213000C5010E9450104D2FD13208F040E22C2DE5
:1021400067E375E08F2D0E94EF10109236058093A3
:102150003505DF91CF911F910F91FF90EF90CF90B8
:10216000BF90AF907F906F905F904F900895CF9207
:10217000EF920F931F93C22EE12C00E010E0980124
:102180000E9463101F910F91EF90CF90089521E06E
:102190000C94B71061E00C94501085E095E00C941D
:1021A0002A101092C40581E08093C2051092C105E7
:1021B00061E082E10E949D0361E083E10E949D0352
:1021C000E9EBF0E080818E7F808380818D7F80834A
:1021D00088E48093B80085E48093BC000895413280
:1021E00008F043C09091C4059111FCCF91E0909309
:1021F000C4052093C2052FEF2093570510929C052C
:10220000240F20939B059093C3059091C305880FDD
:10221000892B8093C3058091C105813061F41092B0
:10222000C1058091C3058093BB008091BC0083FDF4
:10223000F8CF85EC01C085EE8093BC008091C40589
:102240008130E1F380919C05841710F440919C0546
:10225000ADE9B5E0962FFB018E2F891B841718F48A
:102260008D918193F9CF842F089580E008950F9385
:10227000413208F04AC09091C4059111FCCF32E080
:102280003093C4050093C2053FEF30935705109279
:102290009C0540939B05562FADE9B5E0FB013E2F11
:1022A000351B341718F431913D93F9CF1092C305C3
:1022B0003091C305880F832B8093C3058091C1059E
:1022C000813061F41092C1058091C3058093BB00F9
:1022D0008091BC0083FDF8CF85EC01C085EE809332
:1022E000BC00222321F08091C4058230D1F380917B
:1022F00057058F3F79F080915705803241F08091EA
:102300005705803331F094E005C091E003C092E0BE
:1023100001C093E0892F0F91089540917905262FF0
:1023200030E0240F311D21323105DCF42091C40549
:102330002430C9F4FC0180E090E0861758F4309115
:1023400079052191DC01A558BA4FA30FB11D2C933B
:102350000196F3CF80917905680F6093790580E04D
:10236000089581E0089582E0089585ED8093BC0092
:102370008091BC0084FDFCCF1092C405089585ECCB
:102380008093BC001092C40508951F920F920FB65F
:102390000F9211242F933F934F935F936F937F93EB
:1023A0008F939F93AF93BF93EF93FF938091B90067
:1023B000887F803609F49EC078F5883209F45DC0C4
:1023C00090F4803109F456C038F4882309F4F5C03C
:1023D000883009F44FC0F5C0883109F44EC080320E
:1023E00009F45FC0EEC0803409F46AC058F4803349
:1023F00009F457C0883309F0E4C0809357050E9460
:10240000BF11DFC0803509F44FC0883509F45DC0C5
:10241000883409F0D6C0D3C0883909F4C4C0A8F400
:10242000883709F467C038F4883609F463C0803708
:1024300009F460C0C6C0883809F4B5C0803909F411
:102440005FC0803809F0BDC05BC0803B09F483C029
:1024500038F4803A09F466C0883A09F47CC0B1C007
:10246000803C09F4A4C0883C09F4A1C0883B09F46D
:1024700087C0A7C08091C30510C090919C05809132
:102480009B05981770F5E0919C0581E08E0F809375
:102490009C05F0E0E356FA4F80818093BB0085EC09
:1024A00083C0809357058BC0E0919C0581E08E0F1F
:1024B00080939C058091BB00F0E0E356FA4F808347
:1024C00090919C0580919B056BC0E0919C0581E0FB
:1024D0008E0F80939C058091BB00F0E0E356FA4F8D
:1024E00080838091C20581116AC081E08093C1051B
:1024F00084EA5EC083E08093C40510925805CFCF74
:1025000080915805803208F04EC0E091580581E076
:102510008E0F809358058091BB00F0E0E75AFA4F88
:102520008083BDCF0E94BF1180915805803230F466
:10253000E0915805F0E0E75AFA4F10826091580593
:1025400070E0E091BD05F091BE0589E595E0099543
:102550001092580536C084E08093C40510927A0525
:1025600010927905E091BF05F091C0050995809121
:102570007905811105C081E08093790510927B0572
:10258000E0917A0581E08E0F80937A05F0E0E558BE
:10259000FA4F80818093BB0090917A0580917905F4
:1025A000981708F47CCF85E88093BC000AC085ECBE
:1025B0008093BC001092C40504C0109257050E947D
:1025C000B511FF91EF91BF91AF919F918F917F9145
:1025D0006F915F914F913F912F910F900FBE0F9090
:1025E0001F901895E89409C097FB3EF4909580954C
:1025F000709561957F4F8F4F9F4F9923A9F0F92FC9
:1026000096E9BB279395F695879577956795B79546
:10261000F111F8CFFAF4BB0F11F460FF1BC06F5F2C
:102620007F4F8F4F9F4F16C0882311F096E911C03E
:10263000772321F09EE8872F762F05C0662371F05F
:1026400096E8862F70E060E02AF09A95660F771F73
:10265000881FDAF7880F9695879597F9089597F967
:102660009F6780E870E060E008959FEF80EC089538
:1026700000240A9416161706180609060895002461
:102680000A9412161306140605060895092E0394DB
:10269000000C11F4882352F0BB0F40F4BF2B11F44F
:1026A00060FF04C06F5F7F4F8F4F9F4F089557FDAE
:1026B0009058440F551F59F05F3F71F04795880FB0
:1026C00097FB991F61F09F3F79F087950895121647
:1026D00013061406551FF2CF4695F1DF08C01616F3
:1026E00017061806991FF1CF8695710561050894A4
:1026F0000895E894BB2766277727CB0197F90895BB
:102700000E9493130C9446130E94381338F00E94D1
:102710003F1320F0952311F00C942F130C943513D4
:1027200011240C947A130E94571370F3959FC1F3F0
:10273000950F50E0551F629FF001729FBB27F00D6F
:10274000B11D639FAA27F00DB11DAA1F649F6627C4
:10275000B00DA11D661F829F2227B00DA11D621F13
:10276000739FB00DA11D621F839FA00D611D221FCD
:10277000749F3327A00D611D231F849F600D211DB1
:10278000822F762F6A2F11249F5750409AF0F1F034
:1027900088234AF0EE0FFF1FBB1F661F771F881F9D
:1027A00091505040A9F79E3F510580F00C942F1393
:1027B0000C947A135F3FE4F3983ED4F386957795B3
:1027C0006795B795F795E7959F5FC1F7FE2B880F43
:1027D000911D9695879597F9089597FB072E16F406
:1027E000009407D077FD09D00E942E1407FC05D075
:1027F0003EF4909581959F4F0895709561957F4F18
:102800000895A1E21A2EAA1BBB1BFD010DC0AA1F31
:10281000BB1FEE1FFF1FA217B307E407F50720F049
:10282000A21BB30BE40BF50B661F771F881F991FC4
:102830001A9469F760957095809590959B01AC010D
:10284000BD01CF0108950E944814A59F900DB49F2B
:10285000900DA49F800D911D11240895AA1BBB1BF0
:1028600051E107C0AA1FBB1FA617B70710F0A61B90
:10287000B70B881F991F5A95A9F780959095BC01B1
:10288000CD010895EE0FFF1F0590F491E02D0994FE
:10289000A29FB001B39FC001A39F700D811D1124A1
:1028A000911DB29F700D811D1124911D0895A0E00E
:1028B000B0E0EDE5F4E10C94BD155C016B017A012B
:1028C0006115710519F0FB0191838083E114F10416
:1028D00029F0C7010297839708F0C9C0E501219646
:1028E000F5011081812F90E00E944C15892B11F089
:1028F0005E01F4CF1D3229F42196F501118101E02A
:1029000007C01B3221F4E5012296F501118100E098
:10291000E114F104B1F0F0E1EF16F10429F4B0C0D4
:1029200010E3E114F10401F12AE0E216F104B1F13F
:1029300080E1E816F10471F0E8E0EE16F104F1F43C
:1029400013C0103341F588818F7D883549F719818F
:1029500022960260F0E1EF2EF12C88248A94982CC4
:10296000A82CAFE0BA2E20C078E0E72EF12C882406
:102970008A94982CA82CEFE1BE2E16C06FEF7FEF43
:10298000CB0197010F2C000C440B550B0E94011436
:1029900049015A0109C08AE0E82EF12C69E9862E26
:1029A000982CA82C69E1B62E40E060E070E0CB01E5
:1029B00027010F2C000C66087708FE0150ED352E1C
:1029C000310E29E0231570F42FEB210F2A3118F472
:1029D00039EC332E06C02FE9210F2A3130F529EAD0
:1029E000322E310E232D30E02E153F05F4F44F3FEB
:1029F000C9F086169706A806B90688F0A3019201C9
:102A00000E94AC15232D30E040E050E0620F731FB0
:102A1000841F951F621773078407950710F44FEF03
:102A200001C041E021961081C8CFC114D10451F0FA
:102A3000442311F0219703C001FF04C02297F6013F
:102A4000D183C08300FF07C09095809570956195F4
:102A50007F4F8F4F9F4F4F3F79F482E290E09093EA
:102A6000C6058093C5053FEF2FEF9FEF0DC040E0F7
:102A700030E020E090E008C0462F372F282F04C018
:102A8000103309F067CF5FCF642F732F822FCDB73C
:102A9000DEB7E1E10C94D91591110C94A91580329F
:102AA00019F089508550C8F708954CEB52E00E9408
:102AB00082150895FB01DC0104C08D9101908019FD
:102AC00021F441505040C8F7881B990B0895FB0131
:102AD000DC010D900020E9F7119701900D92002084
:102AE000E1F70895FB01DC010D900020E9F7119753
:102AF0004150504028F0019000200D92C9F70895F0
:102B00001C920895FA01A191B081009719F41097D1
:102B1000E1F0CD01DC01CD010D90002011F4C001E8
:102B200013C0FB012191222319F02015D9F7F3CF0F
:102B3000FB012191201519F41E92119606C0222343
:102B4000C1F70D900020A1F7D001FA01A193B08345
:102B50000895992788270895DB018F939F930E94FA
:102B60002314BF91AF91A29F800D911DA39F900D43
:102B7000B29F900D112408952F923F924F925F9231
:102B80006F927F928F929F92AF92BF92CF92DF927D
:102B9000EF92FF920F931F93CF93DF93CDB7DEB7E2
:102BA000CA1BDB0B0FB6F894DEBF0FBECDBF099476
:102BB0002A88398848885F846E847D848C849B84CD
:102BC000AA84B984C884DF80EE80FD800C811B81DB
:102BD000AA81B981CE0FD11D0FB6F894DEBF0FBE0A
:0A2BE000CDBFED010895F894FFCF7A
:102BEA00285F7F29080000D028861A2A080000C911
:102BFA0028DCE729080000EA2847FF5A080000C134
:102C0A00283BD1290800005E2814D6290800009D17
:102C1A0028E2A5290800007E5E00BC007701415425
:102C2A00240041542F003F002C000D0A4F4B4552FF
:102C3A00524F52000D0A00415449370D0041545376
:102C4A003330323F0D004F4B00415426570D00419F
:102C5A0054533330323D25750D00415426460D003C
:102C6A00534600310032002B525820424547494E04
:102C7A00002B525820454E4400535400534F46549B
:102C8A000041544931330D004154533330303D250E
:102C9A00750D004154533930303D256C750D004394
:102CAA0057004154533430303D256C750D00415462
:102CBA00533430303F0D004154533430313D256C8C
:102CCA00750D004154533430313F0D004154533493
:102CDA0030333D256C750D004154533430333F0D6C
:102CEA00004154533430343D25640D00415453346B
:102CFA0030343F0D00415424534C3D0030000D0A3E
:102D0A002B52585F4C414E3D00415424524C3D31A8
:102D1A002C256C750D00415424524C3D320D004156
:102D2A005424524C3D300D004154533330343F0D3E
:102D3A000041540D0041545A0D004154533330366A
:102D4A003D25730D004154533330363F0D00415435
:102D5A00533330373D25750D004154533330373FD7
:102D6A000D004154533330383D256C690D004154F0
:102D7A00533330383F0D0000000000130D950ED577
:102D8A000C5A0DA70CC10CB30C00000000FB0FCEAF
:0C2D9A000F030ECD0FA20FAA0FBE0F00FA
:00000001FF
